{
  "contractName": "dids",
  "abi": [
    {
      "inputs": [],
      "payable": false,
      "stateMutability": "nonpayable",
      "type": "constructor"
    },
    {
      "constant": true,
      "inputs": [],
      "name": "owner",
      "outputs": [
        {
          "internalType": "address",
          "name": "",
          "type": "address"
        }
      ],
      "payable": false,
      "stateMutability": "view",
      "type": "function"
    },
    {
      "constant": true,
      "inputs": [],
      "name": "myadd",
      "outputs": [
        {
          "internalType": "address",
          "name": "myAddr",
          "type": "address"
        }
      ],
      "payable": false,
      "stateMutability": "view",
      "type": "function"
    },
    {
      "constant": true,
      "inputs": [],
      "name": "createId",
      "outputs": [
        {
          "internalType": "string",
          "name": "id",
          "type": "string"
        }
      ],
      "payable": false,
      "stateMutability": "view",
      "type": "function"
    },
    {
      "constant": true,
      "inputs": [],
      "name": "getMyaddress",
      "outputs": [
        {
          "internalType": "string",
          "name": "id",
          "type": "string"
        }
      ],
      "payable": false,
      "stateMutability": "view",
      "type": "function"
    },
    {
      "constant": true,
      "inputs": [
        {
          "internalType": "address",
          "name": "account",
          "type": "address"
        }
      ],
      "name": "toString",
      "outputs": [
        {
          "internalType": "string",
          "name": "",
          "type": "string"
        }
      ],
      "payable": false,
      "stateMutability": "pure",
      "type": "function"
    },
    {
      "constant": true,
      "inputs": [
        {
          "internalType": "uint256",
          "name": "value",
          "type": "uint256"
        }
      ],
      "name": "toString",
      "outputs": [
        {
          "internalType": "string",
          "name": "",
          "type": "string"
        }
      ],
      "payable": false,
      "stateMutability": "pure",
      "type": "function"
    },
    {
      "constant": true,
      "inputs": [
        {
          "internalType": "bytes",
          "name": "data",
          "type": "bytes"
        }
      ],
      "name": "toString",
      "outputs": [
        {
          "internalType": "string",
          "name": "",
          "type": "string"
        }
      ],
      "payable": false,
      "stateMutability": "pure",
      "type": "function"
    },
    {
      "constant": true,
      "inputs": [
        {
          "internalType": "bytes32",
          "name": "value",
          "type": "bytes32"
        }
      ],
      "name": "toString",
      "outputs": [
        {
          "internalType": "string",
          "name": "",
          "type": "string"
        }
      ],
      "payable": false,
      "stateMutability": "pure",
      "type": "function"
    },
    {
      "constant": true,
      "inputs": [
        {
          "internalType": "string",
          "name": "pub",
          "type": "string"
        }
      ],
      "name": "createDoc",
      "outputs": [
        {
          "components": [
            {
              "internalType": "string",
              "name": "id",
              "type": "string"
            },
            {
              "internalType": "string",
              "name": "public_key",
              "type": "string"
            },
            {
              "internalType": "string",
              "name": "signed",
              "type": "string"
            }
          ],
          "internalType": "struct dids.did_document",
          "name": "dd",
          "type": "tuple"
        }
      ],
      "payable": false,
      "stateMutability": "view",
      "type": "function"
    },
    {
      "constant": true,
      "inputs": [
        {
          "internalType": "bytes",
          "name": "msgHash",
          "type": "bytes"
        },
        {
          "internalType": "uint8",
          "name": "v",
          "type": "uint8"
        },
        {
          "internalType": "bytes32",
          "name": "r",
          "type": "bytes32"
        },
        {
          "internalType": "bytes32",
          "name": "s",
          "type": "bytes32"
        }
      ],
      "name": "recoverAdd",
      "outputs": [
        {
          "internalType": "address",
          "name": "",
          "type": "address"
        }
      ],
      "payable": false,
      "stateMutability": "pure",
      "type": "function"
    },
    {
      "constant": true,
      "inputs": [
        {
          "internalType": "address",
          "name": "addr",
          "type": "address"
        },
        {
          "internalType": "bytes",
          "name": "msgHash",
          "type": "bytes"
        },
        {
          "internalType": "uint8",
          "name": "v",
          "type": "uint8"
        },
        {
          "internalType": "bytes32",
          "name": "r",
          "type": "bytes32"
        },
        {
          "internalType": "bytes32",
          "name": "s",
          "type": "bytes32"
        }
      ],
      "name": "verify",
      "outputs": [
        {
          "internalType": "bool",
          "name": "",
          "type": "bool"
        }
      ],
      "payable": false,
      "stateMutability": "pure",
      "type": "function"
    },
    {
      "constant": false,
      "inputs": [
        {
          "components": [
            {
              "internalType": "string",
              "name": "id",
              "type": "string"
            },
            {
              "internalType": "string",
              "name": "public_key",
              "type": "string"
            },
            {
              "internalType": "string",
              "name": "signed",
              "type": "string"
            }
          ],
          "internalType": "struct dids.did_document",
          "name": "dDoc",
          "type": "tuple"
        },
        {
          "internalType": "bytes",
          "name": "hash",
          "type": "bytes"
        },
        {
          "internalType": "uint8",
          "name": "v",
          "type": "uint8"
        },
        {
          "internalType": "bytes32",
          "name": "r",
          "type": "bytes32"
        },
        {
          "internalType": "bytes32",
          "name": "s",
          "type": "bytes32"
        }
      ],
      "name": "RegisterDid",
      "outputs": [
        {
          "internalType": "bool",
          "name": "_isRegist",
          "type": "bool"
        }
      ],
      "payable": false,
      "stateMutability": "nonpayable",
      "type": "function"
    },
    {
      "constant": true,
      "inputs": [
        {
          "internalType": "string",
          "name": "did",
          "type": "string"
        }
      ],
      "name": "getDdoc",
      "outputs": [
        {
          "components": [
            {
              "internalType": "string",
              "name": "id",
              "type": "string"
            },
            {
              "internalType": "string",
              "name": "public_key",
              "type": "string"
            },
            {
              "internalType": "string",
              "name": "signed",
              "type": "string"
            }
          ],
          "internalType": "struct dids.did_document",
          "name": "",
          "type": "tuple"
        }
      ],
      "payable": false,
      "stateMutability": "view",
      "type": "function"
    },
    {
      "constant": false,
      "inputs": [
        {
          "internalType": "string",
          "name": "did",
          "type": "string"
        },
        {
          "internalType": "bytes",
          "name": "hash",
          "type": "bytes"
        },
        {
          "internalType": "uint8",
          "name": "v",
          "type": "uint8"
        },
        {
          "internalType": "bytes32",
          "name": "r",
          "type": "bytes32"
        },
        {
          "internalType": "bytes32",
          "name": "s",
          "type": "bytes32"
        }
      ],
      "name": "deleteDid",
      "outputs": [
        {
          "internalType": "bool",
          "name": "_isChanged",
          "type": "bool"
        }
      ],
      "payable": false,
      "stateMutability": "nonpayable",
      "type": "function"
    },
    {
      "constant": false,
      "inputs": [
        {
          "components": [
            {
              "internalType": "string",
              "name": "id",
              "type": "string"
            },
            {
              "internalType": "string",
              "name": "public_key",
              "type": "string"
            },
            {
              "internalType": "string",
              "name": "signed",
              "type": "string"
            }
          ],
          "internalType": "struct dids.did_document",
          "name": "dDoc",
          "type": "tuple"
        },
        {
          "internalType": "bytes",
          "name": "hash",
          "type": "bytes"
        },
        {
          "internalType": "uint8",
          "name": "v",
          "type": "uint8"
        },
        {
          "internalType": "bytes32",
          "name": "r",
          "type": "bytes32"
        },
        {
          "internalType": "bytes32",
          "name": "s",
          "type": "bytes32"
        }
      ],
      "name": "updateDdoc",
      "outputs": [
        {
          "internalType": "bool",
          "name": "",
          "type": "bool"
        }
      ],
      "payable": false,
      "stateMutability": "nonpayable",
      "type": "function"
    }
  ],
  "bytecode": "0x608060405234801561001057600080fd5b50336000806101000a81548173ffffffffffffffffffffffffffffffffffffffff021916908373ffffffffffffffffffffffffffffffffffffffff16021790555061242e806100606000396000f3fe608060405234801561001057600080fd5b50600436106100f55760003560e01c806371aad10d11610097578063b11a19e811610066578063b11a19e8146102c2578063c835c24b146102f2578063de1ab75914610322578063e5da0f4814610352576100f5565b806371aad10d1461023857806378c5029e146102685780638da5cb5b14610286578063909a1d6c146102a4576100f5565b80634f7f42c5116100d35780634f7f42c514610178578063509e076e146101a857806356ca623e146101d85780636900a3ae14610208576100f5565b80630ad4c4ff146100fa5780630f02949b1461011857806339178d2d14610148575b600080fd5b610102610382565b60405161010f9190611ff6565b60405180910390f35b610132600480360361012d9190810190611a3e565b61038a565b60405161013f9190612011565b60405180910390f35b610162600480360361015d9190810190611997565b6106b7565b60405161016f9190612011565b60405180910390f35b610192600480360361018d9190810190611a3e565b6109b8565b60405161019f9190612011565b60405180910390f35b6101c260048036036101bd9190810190611956565b610cd2565b6040516101cf9190612133565b60405180910390f35b6101f260048036036101ed91908101906117b9565b610f61565b6040516101ff9190612071565b60405180910390f35b610222600480360361021d9190810190611ae5565b610f92565b60405161022f9190612071565b60405180910390f35b610252600480360361024d919081019061189a565b610fc3565b60405161025f9190612071565b60405180910390f35b610270611232565b60405161027d9190612071565b60405180910390f35b61028e611261565b60405161029b9190611ff6565b60405180910390f35b6102ac611286565b6040516102b99190612071565b60405180910390f35b6102dc60048036036102d79190810190611871565b611316565b6040516102e99190612071565b60405180910390f35b61030c600480360361030791908101906117e2565b611347565b6040516103199190612011565b60405180910390f35b61033c600480360361033791908101906118db565b61138e565b6040516103499190611ff6565b60405180910390f35b61036c60048036036103679190810190611956565b611452565b6040516103799190612133565b60405180910390f35b600033905090565b60006103988585858561138e565b73ffffffffffffffffffffffffffffffffffffffff163373ffffffffffffffffffffffffffffffffffffffff1614610405576040517f08c379a00000000000000000000000000000000000000000000000000000000081526004016103fc90612093565b60405180910390fd5b6060600160003373ffffffffffffffffffffffffffffffffffffffff1673ffffffffffffffffffffffffffffffffffffffff1681526020019081526020016000208054600181600116156101000203166002900480601f0160208091040260200160405190810160405280929190818152602001828054600181600116156101000203166002900480156104da5780601f106104af576101008083540402835291602001916104da565b820191906000526020600020905b8154815290600101906020018083116104bd57829003601f168201915b505050505090506003815111610525576040517f08c379a000000000000000000000000000000000000000000000000000000000815260040161051c906120b3565b60405180910390fd5b60006004886000015160405161053b9190611f72565b908152602001604051809103902060009054906101000a900460ff1660ff161461059a576040517f08c379a000000000000000000000000000000000000000000000000000000000815260040161059190612113565b60405180910390fd5b60608760000151905080600160003373ffffffffffffffffffffffffffffffffffffffff1673ffffffffffffffffffffffffffffffffffffffff16815260200190815260200160002090805190602001906105f692919061147b565b50876002826040516106089190611f89565b908152602001604051809103902060008201518160000190805190602001906106329291906114fb565b50602082015181600101908051906020019061064f9291906114fb565b50604082015181600201908051906020019061066c9291906114fb565b5090505060016004826040516106829190611f89565b908152602001604051809103902060006101000a81548160ff021916908360ff16021790555060019250505095945050505050565b60006106c58585858561138e565b73ffffffffffffffffffffffffffffffffffffffff163373ffffffffffffffffffffffffffffffffffffffff1614610732576040517f08c379a000000000000000000000000000000000000000000000000000000000815260040161072990612093565b60405180910390fd5b6060600160003373ffffffffffffffffffffffffffffffffffffffff1673ffffffffffffffffffffffffffffffffffffffff1681526020019081526020016000208054600181600116156101000203166002900480601f0160208091040260200160405190810160405280929190818152602001828054600181600116156101000203166002900480156108075780601f106107dc57610100808354040283529160200191610807565b820191906000526020600020905b8154815290600101906020018083116107ea57829003601f168201915b505050505090506003815111610852576040517f08c379a0000000000000000000000000000000000000000000000000000000008152600401610849906120f3565b60405180910390fd5b866040516020016108639190611f89565b60405160208183030381529060405280519060200120600160003373ffffffffffffffffffffffffffffffffffffffff1673ffffffffffffffffffffffffffffffffffffffff1681526020019081526020016000206040516020016108c89190611fc4565b6040516020818303038152906040528051906020012014156108e957600080fd5b60006004886040516108fb9190611f89565b908152602001604051809103902060006101000a81548160ff021916908360ff1602179055506040518060400160405280600181526020017f7800000000000000000000000000000000000000000000000000000000000000815250600160003373ffffffffffffffffffffffffffffffffffffffff1673ffffffffffffffffffffffffffffffffffffffff16815260200190815260200160002090805190602001906109a992919061147b565b50600191505095945050505050565b60006109c68585858561138e565b73ffffffffffffffffffffffffffffffffffffffff163373ffffffffffffffffffffffffffffffffffffffff1614610a33576040517f08c379a0000000000000000000000000000000000000000000000000000000008152600401610a2a90612093565b60405180910390fd5b6060600160003373ffffffffffffffffffffffffffffffffffffffff1673ffffffffffffffffffffffffffffffffffffffff1681526020019081526020016000208054600181600116156101000203166002900480601f016020809104026020016040519081016040528092919081815260200182805460018160011615610100020316600290048015610b085780601f10610add57610100808354040283529160200191610b08565b820191906000526020600020905b815481529060010190602001808311610aeb57829003601f168201915b50505050509050600081511415610b54576040517f08c379a0000000000000000000000000000000000000000000000000000000008152600401610b4b906120f3565b60405180910390fd5b8660000151604051602001610b699190611f72565b60405160208183030381529060405280519060200120600160003373ffffffffffffffffffffffffffffffffffffffff1673ffffffffffffffffffffffffffffffffffffffff168152602001908152602001600020604051602001610bce9190611fc4565b604051602081830303815290604052805190602001201415610bef57600080fd5b8660000151600160003373ffffffffffffffffffffffffffffffffffffffff1673ffffffffffffffffffffffffffffffffffffffff1681526020019081526020016000209080519060200190610c4692919061147b565b508660028860000151604051610c5c9190611f72565b90815260200160405180910390206000820151816000019080519060200190610c869291906114fb565b506020820151816001019080519060200190610ca39291906114fb565b506040820151816002019080519060200190610cc09291906114fb565b50905050600191505095945050505050565b610cda61157b565b6001600483604051610cec9190611f89565b908152602001604051809103902060009054906101000a900460ff1660ff1614610d4b576040517f08c379a0000000000000000000000000000000000000000000000000000000008152600401610d42906120d3565b60405180910390fd5b600282604051610d5b9190611f89565b9081526020016040518091039020604051806060016040529081600082018054600181600116156101000203166002900480601f016020809104026020016040519081016040528092919081815260200182805460018160011615610100020316600290048015610e0d5780601f10610de257610100808354040283529160200191610e0d565b820191906000526020600020905b815481529060010190602001808311610df057829003601f168201915b50505050508152602001600182018054600181600116156101000203166002900480601f016020809104026020016040519081016040528092919081815260200182805460018160011615610100020316600290048015610eaf5780601f10610e8457610100808354040283529160200191610eaf565b820191906000526020600020905b815481529060010190602001808311610e9257829003601f168201915b50505050508152602001600282018054600181600116156101000203166002900480601f016020809104026020016040519081016040528092919081815260200182805460018160011615610100020316600290048015610f515780601f10610f2657610100808354040283529160200191610f51565b820191906000526020600020905b815481529060010190602001808311610f3457829003601f168201915b5050505050815250509050919050565b6060610f8b82604051602001610f779190611efd565b604051602081830303815290604052610fc3565b9050919050565b6060610fbc82604051602001610fa89190611fdb565b604051602081830303815290604052610fc3565b9050919050565b6060806040518060400160405280601081526020017f30313233343536373839616263646566000000000000000000000000000000008152509050606060028451026002016040519080825280601f01601f19166020018201604052801561103a5781602001600182028038833980820191505090505b5090507f30000000000000000000000000000000000000000000000000000000000000008160008151811061106b57fe5b60200101907effffffffffffffffffffffffffffffffffffffffffffffffffffffffffffff1916908160001a9053507f7800000000000000000000000000000000000000000000000000000000000000816001815181106110c857fe5b60200101907effffffffffffffffffffffffffffffffffffffffffffffffffffffffffffff1916908160001a90535060008090505b84518110156112275782600486838151811061111557fe5b602001015160f81c60f81b7effffffffffffffffffffffffffffffffffffffffffffffffffffffffffffff1916901c60f81c60ff168151811061115457fe5b602001015160f81c60f81b82600283026002018151811061117157fe5b60200101907effffffffffffffffffffffffffffffffffffffffffffffffffffffffffffff1916908160001a90535082600f60f81b8683815181106111b257fe5b602001015160f81c60f81b1660f81c60ff16815181106111ce57fe5b602001015160f81c60f81b8260028302600301815181106111eb57fe5b60200101907effffffffffffffffffffffffffffffffffffffffffffffffffffffffffffff1916908160001a90535080806001019150506110fd565b508092505050919050565b606061125c336040516020016112489190611f18565b604051602081830303815290604052610fc3565b905090565b6000809054906101000a900473ffffffffffffffffffffffffffffffffffffffff1681565b6060806040518060400160405280600981526020017f6469643a657468723a0000000000000000000000000000000000000000000000815250905060606112eb336040516020016112d79190611f18565b604051602081830303815290604052610fc3565b90508181604051602001611300929190611fa0565b6040516020818303038152906040529250505090565b60606113408260405160200161132c9190611f33565b604051602081830303815290604052610fc3565b9050919050565b60006113558585858561138e565b73ffffffffffffffffffffffffffffffffffffffff168673ffffffffffffffffffffffffffffffffffffffff1614905095945050505050565b600060606040518060400160405280601c81526020017f19457468657265756d205369676e6564204d6573736167653a0a3332000000008152509050600081876040516020016113df929190611f4e565b6040516020818303038152906040528051906020012090506001818787876040516000815260200160405260405161141a949392919061202c565b6020604051602081039080840390855afa15801561143c573d6000803e3d6000fd5b5050506020604051035192505050949350505050565b61145a61157b565b611462611286565b8160000181905250818160200181905250809050919050565b828054600181600116156101000203166002900490600052602060002090601f016020900481019282601f106114bc57805160ff19168380011785556114ea565b828001600101855582156114ea579182015b828111156114e95782518255916020019190600101906114ce565b5b5090506114f7919061159c565b5090565b828054600181600116156101000203166002900490600052602060002090601f016020900481019282601f1061153c57805160ff191683800117855561156a565b8280016001018555821561156a579182015b8281111561156957825182559160200191906001019061154e565b5b509050611577919061159c565b5090565b60405180606001604052806060815260200160608152602001606081525090565b6115be91905b808211156115ba5760008160009055506001016115a2565b5090565b90565b6000813590506115d08161238f565b92915050565b6000813590506115e5816123a6565b92915050565b600082601f8301126115fc57600080fd5b813561160f61160a82612182565b612155565b9150808252602083016020830185838301111561162b57600080fd5b6116368382846122e5565b50505092915050565b600082601f83011261165057600080fd5b813561166361165e826121ae565b612155565b9150808252602083016020830185838301111561167f57600080fd5b61168a8382846122e5565b50505092915050565b600082601f8301126116a457600080fd5b81356116b76116b2826121da565b612155565b915080825260208301602083018583830111156116d357600080fd5b6116de8382846122e5565b50505092915050565b6000606082840312156116f957600080fd5b6117036060612155565b9050600082013567ffffffffffffffff81111561171f57600080fd5b61172b8482850161163f565b600083015250602082013567ffffffffffffffff81111561174b57600080fd5b6117578482850161163f565b602083015250604082013567ffffffffffffffff81111561177757600080fd5b6117838482850161163f565b60408301525092915050565b60008135905061179e816123bd565b92915050565b6000813590506117b3816123d4565b92915050565b6000602082840312156117cb57600080fd5b60006117d9848285016115c1565b91505092915050565b600080600080600060a086880312156117fa57600080fd5b6000611808888289016115c1565b955050602086013567ffffffffffffffff81111561182557600080fd5b611831888289016115eb565b9450506040611842888289016117a4565b9350506060611853888289016115d6565b9250506080611864888289016115d6565b9150509295509295909350565b60006020828403121561188357600080fd5b6000611891848285016115d6565b91505092915050565b6000602082840312156118ac57600080fd5b600082013567ffffffffffffffff8111156118c657600080fd5b6118d2848285016115eb565b91505092915050565b600080600080608085870312156118f157600080fd5b600085013567ffffffffffffffff81111561190b57600080fd5b611917878288016115eb565b9450506020611928878288016117a4565b9350506040611939878288016115d6565b925050606061194a878288016115d6565b91505092959194509250565b60006020828403121561196857600080fd5b600082013567ffffffffffffffff81111561198257600080fd5b61198e84828501611693565b91505092915050565b600080600080600060a086880312156119af57600080fd5b600086013567ffffffffffffffff8111156119c957600080fd5b6119d588828901611693565b955050602086013567ffffffffffffffff8111156119f257600080fd5b6119fe888289016115eb565b9450506040611a0f888289016117a4565b9350506060611a20888289016115d6565b9250506080611a31888289016115d6565b9150509295509295909350565b600080600080600060a08688031215611a5657600080fd5b600086013567ffffffffffffffff811115611a7057600080fd5b611a7c888289016116e7565b955050602086013567ffffffffffffffff811115611a9957600080fd5b611aa5888289016115eb565b9450506040611ab6888289016117a4565b9350506060611ac7888289016115d6565b9250506080611ad8888289016115d6565b9150509295509295909350565b600060208284031215611af757600080fd5b6000611b058482850161178f565b91505092915050565b611b1f611b1a82612286565b612339565b82525050565b611b2e81612274565b82525050565b611b45611b4082612274565b612327565b82525050565b611b5481612298565b82525050565b611b63816122a4565b82525050565b611b7a611b75826122a4565b61234b565b82525050565b6000611b8b8261221b565b611b95818561223c565b9350611ba58185602086016122f4565b80840191505092915050565b6000611bbc82612231565b611bc68185612258565b9350611bd68185602086016122f4565b611bdf81612371565b840191505092915050565b6000611bf582612231565b611bff8185612269565b9350611c0f8185602086016122f4565b80840191505092915050565b6000611c2682612226565b611c308185612247565b9350611c408185602086016122f4565b611c4981612371565b840191505092915050565b6000611c5f82612226565b611c698185612269565b9350611c798185602086016122f4565b80840191505092915050565b600081546001811660008114611ca25760018114611cc757611d0b565b607f6002830416611cb38187612269565b955060ff1983168652808601935050611d0b565b60028204611cd58187612269565b9550611ce085612206565b60005b82811015611d0257815481890152600182019150602081019050611ce3565b82880195505050505b505092915050565b6000611d20601883612258565b91507f6e6f74207369676e65722e20696e76616c6964207573657200000000000000006000830152602082019050919050565b6000611d60602083612258565b91507f796f7572206163636f756e7420616c726561647920686176652061206469642e6000830152602082019050919050565b6000611da0600c83612258565b91507f696e76616c6964206469642100000000000000000000000000000000000000006000830152602082019050919050565b6000611de0602283612258565b91507f796f7572206163636f756e7420646f65736e2774206861766520616e7920646960008301527f642e0000000000000000000000000000000000000000000000000000000000006020830152604082019050919050565b6000611e46601983612258565b91507f546865726520697320616c72656164792073616d6520646964000000000000006000830152602082019050919050565b60006060830160008301518482036000860152611e968282611c1b565b91505060208301518482036020860152611eb08282611c1b565b91505060408301518482036040860152611eca8282611c1b565b9150508091505092915050565b611ee8611ee3826122ce565b612367565b82525050565b611ef7816122d8565b82525050565b6000611f098284611b34565b60148201915081905092915050565b6000611f248284611b0e565b60148201915081905092915050565b6000611f3f8284611b69565b60208201915081905092915050565b6000611f5a8285611b80565b9150611f668284611b80565b91508190509392505050565b6000611f7e8284611c54565b915081905092915050565b6000611f958284611bea565b915081905092915050565b6000611fac8285611bea565b9150611fb88284611bea565b91508190509392505050565b6000611fd08284611c85565b915081905092915050565b6000611fe78284611ed7565b60208201915081905092915050565b600060208201905061200b6000830184611b25565b92915050565b60006020820190506120266000830184611b4b565b92915050565b60006080820190506120416000830187611b5a565b61204e6020830186611eee565b61205b6040830185611b5a565b6120686060830184611b5a565b95945050505050565b6000602082019050818103600083015261208b8184611bb1565b905092915050565b600060208201905081810360008301526120ac81611d13565b9050919050565b600060208201905081810360008301526120cc81611d53565b9050919050565b600060208201905081810360008301526120ec81611d93565b9050919050565b6000602082019050818103600083015261210c81611dd3565b9050919050565b6000602082019050818103600083015261212c81611e39565b9050919050565b6000602082019050818103600083015261214d8184611e79565b905092915050565b6000604051905081810181811067ffffffffffffffff8211171561217857600080fd5b8060405250919050565b600067ffffffffffffffff82111561219957600080fd5b601f19601f8301169050602081019050919050565b600067ffffffffffffffff8211156121c557600080fd5b601f19601f8301169050602081019050919050565b600067ffffffffffffffff8211156121f157600080fd5b601f19601f8301169050602081019050919050565b60008190508160005260206000209050919050565b600081519050919050565b600081519050919050565b600081519050919050565b600081905092915050565b600082825260208201905092915050565b600082825260208201905092915050565b600081905092915050565b600061227f826122ae565b9050919050565b6000612291826122ae565b9050919050565b60008115159050919050565b6000819050919050565b600073ffffffffffffffffffffffffffffffffffffffff82169050919050565b6000819050919050565b600060ff82169050919050565b82818337600083830152505050565b60005b838110156123125780820151818401526020810190506122f7565b83811115612321576000848401525b50505050565b600061233282612355565b9050919050565b600061234482612355565b9050919050565b6000819050919050565b600061236082612382565b9050919050565b6000819050919050565b6000601f19601f8301169050919050565b60008160601b9050919050565b61239881612274565b81146123a357600080fd5b50565b6123af816122a4565b81146123ba57600080fd5b50565b6123c6816122ce565b81146123d157600080fd5b50565b6123dd816122d8565b81146123e857600080fd5b5056fea365627a7a723158208232ca55efbe1a8511b46fca8d42732893a443296f516859d7111e95c6e4aa2e6c6578706572696d656e74616cf564736f6c63430005100040",
  "source": "pragma solidity >=0.4.22 <0.8.0;\r\npragma experimental ABIEncoderV2;\r\n\r\ncontract dids {\r\n    address public owner;\r\n\r\n    struct did_document {\r\n        string id;\r\n        string public_key;\r\n        string signed;\r\n    }\r\n\r\n    mapping(address => string) private _addressToDid;\r\n    mapping(string => did_document) private _didToDdoc;\r\n    mapping(string => string) private _ddocToPubkey;\r\n    mapping(string => uint8) private _isvalidDid;\r\n\r\n    constructor() public {\r\n        owner = msg.sender;\r\n    }\r\n\r\n    modifier _isSigner(address add) {\r\n        if (msg.sender == add) _;\r\n    }\r\n\r\n    //for test function\r\n    function myadd() public view returns (address myAddr) {\r\n        return msg.sender;\r\n    }\r\n\r\n    //create dids id\r\n    function createId() public view returns (string memory id) {\r\n        string memory id1 = \"did:ethr:\";\r\n        string memory id2 = toString(abi.encodePacked(msg.sender));\r\n        return string(abi.encodePacked(id1, id2));\r\n    }\r\n\r\n    function getMyaddress() public view returns (string memory id) {\r\n        return toString(abi.encodePacked(msg.sender));\r\n    }\r\n\r\n    function toString(address account) public pure returns (string memory) {\r\n        return toString(abi.encodePacked(account));\r\n    }\r\n\r\n    function toString(uint256 value) public pure returns (string memory) {\r\n        return toString(abi.encodePacked(value));\r\n    }\r\n\r\n    function toString(bytes32 value) public pure returns (string memory) {\r\n        return toString(abi.encodePacked(value));\r\n    }\r\n\r\n    function toString(bytes memory data) public pure returns (string memory) {\r\n        bytes memory alphabet = \"0123456789abcdef\";\r\n\r\n        bytes memory str = new bytes(2 + data.length * 2);\r\n        str[0] = \"0\";\r\n        str[1] = \"x\";\r\n        for (uint256 i = 0; i < data.length; i++) {\r\n            str[2 + i * 2] = alphabet[uint256(uint8(data[i] >> 4))];\r\n            str[3 + i * 2] = alphabet[uint256(uint8(data[i] & 0x0f))];\r\n        }\r\n        return string(str);\r\n    }\r\n\r\n    //create document call above function inside this func\r\n    function createDoc(string memory pub)\r\n        public\r\n        view\r\n        returns (did_document memory dd)\r\n    {\r\n        dd.id = createId();\r\n        dd.public_key = pub;\r\n        return dd;\r\n    }\r\n\r\n    string id;\r\n    string public_key;\r\n    uint256 signed;\r\n\r\n    function recoverAdd(\r\n        bytes memory msgHash,\r\n        uint8 v,\r\n        bytes32 r,\r\n        bytes32 s\r\n    ) public pure returns (address) {\r\n        bytes memory prefix = \"\\x19Ethereum Signed Message:\\n32\";\r\n        //bytes memory pre_msg = prefix ^ msgHash;\r\n        bytes32 prefixedHash = keccak256(abi.encodePacked(prefix, msgHash));\r\n        //get an address\r\n        return ecrecover(prefixedHash, v, r, s);\r\n    }\r\n\r\n    function verify(\r\n        address addr,\r\n        bytes memory msgHash,\r\n        uint8 v,\r\n        bytes32 r,\r\n        bytes32 s\r\n    ) public pure returns (bool) {\r\n        return addr == recoverAdd(msgHash, v, r, s);\r\n    }\r\n\r\n    // mapping(address => string) private _addressToDid;\r\n    // mapping(string => did_document) private _didToDdoc;\r\n    // mapping(string => string) private _ddocToPubkey;\r\n    //mapping(string => uint8) private _isValidDid;\r\n    function RegisterDid(\r\n        did_document memory dDoc,\r\n        bytes memory hash,\r\n        uint8 v,\r\n        bytes32 r,\r\n        bytes32 s\r\n    ) public returns (bool _isRegist) {\r\n        require(\r\n            msg.sender == recoverAdd(hash, v, r, s),\r\n            \"not signer. invalid user\"\r\n        );\r\n        bytes memory isEmpty = bytes(_addressToDid[msg.sender]); // Uses memory\r\n        require(isEmpty.length > 3, \"your account already have a did.\");\r\n        require(_isvalidDid[dDoc.id] == 0, \"There is already same did\");\r\n\r\n        string memory getid = dDoc.id;\r\n        _addressToDid[msg.sender] = getid;\r\n        _didToDdoc[getid] = dDoc;\r\n        _isvalidDid[getid] = 1;\r\n\r\n        return true;\r\n    }\r\n\r\n    function getDdoc(string memory did)\r\n        public\r\n        view\r\n        returns (did_document memory)\r\n    {\r\n        require(_isvalidDid[did] == 1, \"invalid did!\");\r\n        return _didToDdoc[did];\r\n    }\r\n\r\n    function deleteDid(\r\n        string memory did,\r\n        bytes memory hash,\r\n        uint8 v,\r\n        bytes32 r,\r\n        bytes32 s\r\n    ) public returns (bool _isChanged) {\r\n        require(\r\n            msg.sender == recoverAdd(hash, v, r, s),\r\n            \"not signer. invalid user\"\r\n        );\r\n        //did   \r\n        bytes memory isEmpty = bytes(_addressToDid[msg.sender]); // Uses memory\r\n        require(isEmpty.length > 3, \"your account doesn't have any did.\");\r\n\r\n        require(\r\n            keccak256(abi.encodePacked(_addressToDid[msg.sender])) !=\r\n                keccak256(abi.encodePacked(did))\r\n        );\r\n        _isvalidDid[did] = 0;\r\n        _addressToDid[msg.sender] = \"x\";\r\n\r\n        return true;\r\n    }\r\n\r\n    // * @dev did document    .   did  \r\n    //      . =>   sign    .\r\n    // * @param did document\r\n    // * @return     \r\n    function updateDdoc(\r\n        did_document memory dDoc,\r\n        bytes memory hash,\r\n        uint8 v,\r\n        bytes32 r,\r\n        bytes32 s\r\n    ) public returns (bool) {\r\n        require(\r\n            msg.sender == recoverAdd(hash, v, r, s),\r\n            \"not signer. invalid user\"\r\n        );\r\n        //did   \r\n        bytes memory isEmpty = bytes(_addressToDid[msg.sender]); // Uses memory\r\n        require(isEmpty.length != 0, \"your account doesn't have any did.\");\r\n        require(\r\n            keccak256(abi.encodePacked(_addressToDid[msg.sender])) !=\r\n                keccak256(abi.encodePacked(dDoc.id))\r\n        );\r\n        _addressToDid[msg.sender] = dDoc.id;\r\n        _didToDdoc[dDoc.id] = dDoc;\r\n        return true;\r\n    }\r\n}\r\n",
  "sourcePath": "C:/ethereum_project/test/contracts/dids.sol",
  "compiler": {
    "name": "solc",
    "version": "0.5.16+commit.9c3226ce.Emscripten.clang"
  },
  "schemaVersion": "3.2.5",
  "updatedAt": "2020-11-16T11:12:00.688Z",
  "networkType": "ethereum",
  "devdoc": {
    "methods": {}
  },
  "userdoc": {
    "methods": {}
  }
}